:100000000C94B1000C94CE000C94CE000C94EC0136
:100010000C94CE000C94CE000C94CE000C94CE0028
:100020000C94CE000C94CE000C94CE000C9486015F
:100030000C94CE000C94CE000C94BE010C94CE0017
:100040000C94CE000C94CE000C94CE000C94CE00F8
:100050000C94CE000C94CE000C94CE000C94CE00E8
:100060000C94CE000C94CE0000407A10F35A00A0FD
:10007000724E18090010A5D4E80000E87648170071
:1000800000E40B54020000CA9A3B000000E1F505B1
:10009000000080969800000040420F000000A086FB
:1000A00001000000102700000000E803000000002D
:1000B0006400000000000A000000000001000000D1
:1000C00000002C76D888DC674F0823DFC1DFAE59EB
:1000D000E1B1B796E5E3E453C63AE651997696E87E
:1000E000E6C28426EB898C9B62ED407C6FFCEFBC02
:1000F0009C9F40F2BAA56FA5F490055A2AF75C932D
:100100006B6CF9676DC11BFCE0E40D47FEF520E662
:10011000B500D0ED902E0300943577050080841E45
:10012000080000204E0A000000C80C333333330FA0
:10013000986E12831141EF8D2114893BE65516CF3D
:10014000FEE6DB18D1844B381BF77C1D901DA4BB49
:10015000E424203284725E228100C9F124ECA1E5FE
:100160003D2711241FBECFEFD8E0DEBFCDBF11E089
:10017000A0E0B1E0E8EEF6E102C005900D92A232F7
:10018000B107D9F711E0A2E2B1E001C01D92AA3394
:10019000B107E1F70E940B010C94720B0C94000064
:1001A000EBE6F0E0808183618083E8E6F0E0808127
:1001B0008160808384B5826084BD8BE987BD85B50D
:1001C000856085BDEEE6F0E0808182608083E1E8B5
:1001D000F0E080818860808380ED97E090938900D3
:1001E00080938800808182608083EFE6F0E08081E8
:1001F000826080831092B300E0EBF0E08081806841
:100200008083808183608083E1EBF0E08081816086
:10021000808378940895CF93DF93CDB7DEB7E597C9
:100220000FB6F894DEBF0FBECDBF0E94D000239A58
:1002300015B883E60E940A036E012CE2C20ED11C9F
:100240004E0182E2880E911C85E2A82E90E0692E74
:1002500091E0792E21E2B22EEE24E394F12CEC0E03
:10026000FD1EF89460912401709125018091260172
:1002700090912701860120E042E00E9406066091ED
:10028000B30070E080E090E00E94F10420E030E0F4
:100290004FE753E40E94890420E030E048EC52E448
:1002A0000E94A305840120E042E00E9406067894A3
:1002B0002091B30080912801909129011F922F93E2
:1002C0001F92AF929F928F929F938F93DF92CF92C4
:1002D0007F926F921F92BF92FF92EF920E94270629
:1002E00060E070E0C7010E9448039FEF29E688E1C3
:1002F000915020408040E1F700C000000E94FE02C3
:100300000FB6F894DEBF0FBECDBFABCF1F920F92DA
:100310000FB60F9211242F933F934F935F936F93D8
:100320007F938F939F93AF93BF93EF93FF9320E0BF
:1003300030E040E85FE360912A0170912B018091E9
:100340002C0190912D010E94210460932A01709349
:100350002B0180932C0190932D01FF91EF91BF9180
:10036000AF919F918F917F916F915F914F913F914D
:100370002F910F900FBE0F901F9018951F920F9204
:100380000FB60F9211242F933F938F939F938091D9
:100390002E0190912F018233910549F41092310181
:1003A0001092300110922F0110922E010CC020915A
:1003B000300130913101121613062CF401969093FE
:1003C0002F0180932E019F918F913F912F910F903C
:1003D0000FBE0F901F9018951F920F920FB60F929D
:1003E00011248F929F92AF92BF922F933F934F937E
:1003F0005F936F937F938F939F93AF93BF93CF93AD
:10040000DF93EF93FF93C3B1C0933201DC2FD17020
:10041000C0FF5BC08091330180FD57C080903401E4
:1004200090903501A0903601B090370120E030E087
:100430004AE853E4C501B4010E94850487FF11C056
:1004400020E030E040E85FE3C501B4010E942104F0
:100450006093340170933501809336019093370196
:1004600034C020912A0130912B0140912C015091F0
:100470002D0160E070E080E89FE30E94890420E0A5
:1004800030E040E752E40E94A30520E030E04AE774
:1004900054E40E94A305AB01BC0140932401509396
:1004A0002501609326017093270110922A01109272
:1004B0002B0110922C0110922D01109234011092F8
:1004C00035011092360110923701C1FF0FC08091A3
:1004D000330181FD0BC0DD2319F081E090E002C003
:1004E0008FEF9FEF9093230180932201C0933301FC
:1004F000C4FD21C08091300190913101892BD9F444
:10050000809128019091290101969093290180936F
:10051000280181E090E09093310180933001809137
:10052000B3008F3F19F41092B30005C08091B3005F
:10053000865F8093B300FF91EF91DF91CF91BF91E0
:10054000AF919F918F917F916F915F914F913F916B
:100550002F91BF90AF909F908F900F900FBE0F90F4
:100560001F901895209138013091390121303105C3
:1005700021F495B1982B95B9089598B1982B98B915
:10058000089520913801309139018095213031054D
:1005900021F495B1982395B9089598B1982398B905
:1005A000089588E00E94B20284E090E00197F1F79C
:1005B00088E00E94C10288EC90E00197F1F708956D
:1005C000CF93C82F80E20E94C102CBB9CF910C9487
:1005D000D102CF93C82F80E20E94C10280E10E9425
:1005E000C1028C2F807F8BB90E94D10220E1C29F73
:1005F000C00111248BB9CF910C94D1021BB80E9479
:10060000D10280E18BB90E94D10280E99AE1019781
:10061000F1F7089590EF9AB9823649F481E090E0BD
:10062000909339018093380188E384B906C0109211
:1006300039011092380188E387B92FE782E392E00D
:10064000215080409040E1F700C0000080E30E940C
:10065000E00280E190E40197F1F780E30E94E0027C
:1006600080E991E00197F1F780E30E94E00280E2E7
:100670000E94E00282E00E94E90288E20E94E90210
:100680008CE00E94E9020E94FE0286E00C94E902DE
:100690008F929F92AF92BF92CF92DF92EF92FF9292
:1006A0000F931F93CF93DF937C014B016A01FC01F1
:1006B00020E030E0CFEF1FEF45C08114910449F4F2
:1006C000C114D10409F447C041E0C416D10409F4AF
:1006D00041C02F30310519F4803291F53CC02F31E3
:1006E000310519F4803261F538C02031310599F4B3
:1006F000803231F181E08816910411F580E190E0BB
:10070000D701A80FB91F4C91403211F4182F18C00F
:100710000197B0F715C02032310591F4803281F095
:1007200081E0C816D10461F480E290E0D701A80FFF
:10073000B91F4C91403211F4C82F02C00197B0F795
:100740002F5F3F4F8191882349F02436310509F00E
:10075000B4CF04C0C0E210E101C0C0E2D0E088EC38
:10076000A82EB12C58C08A3049F480EC0E94E902CE
:10077000C5010197F1F7DF5F1FEF30C0D11731F0EE
:10078000812F90E0809628173907D9F480EC0E94D9
:10079000E902C5010197F1F781E08816910409F497
:1007A0001CC091E0C916D104C9F481149104B1F4BC
:1007B0002D2F30E0812F90E080962817390771F4B3
:1007C0000CC0DC130BC080E80E94E902C501019750
:1007D000F1F721E0C216D10409F4DF5FF701ED0F54
:1007E000F11D008180E20E94B20280E10E94C102FC
:1007F000802F807F8BB90E94D10240E1049FC0010D
:1008000011248BB90E94D10280E20E94C102C5016D
:100810000197F1F7DF5F2D2F30E0F701E20FF31FB3
:1008200080818111A0CFDF91CF911F910F91FF9017
:10083000EF90DF90CF90BF90AF909F908F900895F2
:100840005058BB27AA270ED044C135D130F03AD139
:1008500020F031F49F3F11F41EF42AC10EF4E0950C
:10086000E7FB20C1E92F46D180F3BA17620773076F
:100870008407950718F071F49EF55EC10EF4E095BB
:100880000B2EBA2FA02D0B01B90190010C01CA014A
:10089000A0011124FF27591B99F0593F50F4503EF5
:1008A00068F11A16F040A22F232F342F4427585FE7
:1008B000F3CF469537952795A795F0405395C9F7FF
:1008C0007EF41F16BA0B620B730B840BBAF09150B7
:1008D000A1F0FF0FBB1F661F771F881FC2F70EC056
:1008E000BA0F621F731F841F48F487957795679529
:1008F000B795F7959E3F08F0B3CF9395880F08F012
:100900009927EE0F979587950895A8D008F481E070
:1009100008950CD0DEC0D6D040F0CDD030F021F418
:100920005F3F19F0BFC0511108C1C2C0E3D098F3B6
:100930009923C9F35523B1F3951B550BBB27AA2760
:1009400062177307840738F09F5F5F4F220F331FD2
:10095000441FAA1FA9F333D00E2E3AF0E0E830D09E
:1009600091505040E695001CCAF729D0FE2F27D0A1
:10097000660F771F881FBB1F261737074807AB076F
:10098000B0E809F0BB0B802DBF01FF2793585F4FE4
:100990002AF09E3F510568F085C0CFC05F3FECF361
:1009A000983EDCF3869577956795B795F7959F5FA9
:1009B000C9F7880F911D9695879597F90895E1E0FD
:1009C000660F771F881FBB1F621773078407BA075C
:1009D00020F0621B730B840BBA0BEE1F88F7E095B7
:1009E0000895E89409C097FB3EF490958095709522
:1009F00061957F4F8F4F9F4F9923A9F0F92F96E96B
:100A0000BB279395F695879577956795B795F111DF
:100A1000F8CFFAF4BB0F11F460FF1BC06F5F7F4F7C
:100A20008F4F9F4F16C0882311F096E911C077238E
:100A300021F09EE8872F762F05C0662371F096E897
:100A4000862F70E060E02AF09A95660F771F881F66
:100A5000DAF7880F9695879597F90895990F00080A
:100A6000550FAA0BE0E8FEEF16161706E807F90780
:100A7000C0F012161306E407F50798F0621B730B1B
:100A8000840B950B39F40A2661F0232B242B252B9C
:100A900021F408950A2609F4A140A6958FEF811D3F
:100AA000811D089597F99F6780E870E060E00895E0
:100AB0009FEF80EC089500240A9416161706180676
:100AC0000906089500240A94121613061406050652
:100AD0000895092E0394000C11F4882352F0BB0FE3
:100AE00040F4BF2B11F460FF04C06F5F7F4F8F4F46
:100AF0009F4F089557FD9058440F551F59F05F3F81
:100B000071F04795880F97FB991F61F09F3F79F02F
:100B100087950895121613061406551FF2CF4695B1
:100B2000F1DF08C0161617061806991FF1CF869533
:100B30007105610508940895E894BB276627772717
:100B4000CB0197F908950BD0C4CFB5DF28F0BADFF9
:100B500018F0952309F0A6CFABCF1124EECFCADF52
:100B6000A0F3959FD1F3950F50E0551F629FF001C0
:100B7000729FBB27F00DB11D639FAA27F00DB11D19
:100B8000AA1F649F6627B00DA11D661F829F2227A2
:100B9000B00DA11D621F739FB00DA11D621F839F29
:100BA000A00D611D221F749F3327A00D611D231FFF
:100BB000849F600D211D822F762F6A2F11249F574D
:100BC00050408AF0E1F088234AF0EE0FFF1FBB1F70
:100BD000661F771F881F91505040A9F79E3F51050F
:100BE00070F060CFAACF5F3FECF3983EDCF38695C0
:100BF00077956795B795F795E7959F5FC1F7FE2BBA
:100C0000880F911D9695879597F90895EF920F9308
:100C10001F93CF93C02F47FF02C034E101C034E0DF
:100C2000E42FFF27E7FDF095F7FF03C0F195E1956D
:100C3000F109E32E022F2E2F4C2F512F0E943B083B
:100C40008C2F912FCF911F910F91EF900895EF92DC
:100C5000FF92CF93DF93CDB7DEB72E970FB6F89400
:100C6000DEBF0FBECDBFED88FE888F89988D26E050
:100C70002C83FA82E98297FF02C080E090E8019716
:100C80009E838D83CE014B96AC01698D7A8DCE010A
:100C900001960E9464064D815E8157FD0AC02F8136
:100CA0003885421753070CF49A01F701E20FF31F3E
:100CB00010822E960FB6F894DEBF0FBECDBFDF9127
:100CC000CF91FF90EF900895ACE0B0E0EAE6F6E057
:100CD0000C943B0B6C015B017A01FC0117821682BC
:100CE000838181FFC1C166246394712C6C0E7D1ECB
:100CF000F6019381F50193FD859193FF81915F0149
:100D0000882309F4ADC1853239F493FD859193FFB1
:100D100081915F01853229F4B60190E00E94A70A13
:100D2000E7CF512C10E020E02032A8F48B3261F0A4
:100D300028F4803251F0833271F40BC08D3239F0D7
:100D4000803349F4216028C02260246025C02860D7
:100D500023C0206121C027FD27C0382F30533A30EF
:100D600078F426FF06C0FAE05F9E300D1124532E62
:100D700013C04AE0149F300D1124132F20620CC0C1
:100D80008E3221F426FD6CC1206406C08C3611F42D
:100D9000206802C0883641F4F50193FD859193FFE8
:100DA00081915F018111C0CF982F9554933018F035
:100DB0009052933030F4F4E0EF0EF11C4FE349838E
:100DC0000EC0833631F0833779F0833509F05DC08A
:100DD00023C0F7018081898342E0E40EF11C4424A2
:100DE0004394512C430115C0170152E0250E311CCC
:100DF000F7018080918026FF03C0652D70E002C05E
:100E00006FEF7FEFC4012C870E949C0A2C017101B7
:100E10002C85022F0F7717C01701F2E02F0E311C1F
:100E2000F7018080918026FF03C0652D70E002C02D
:100E30006FEF7FEFC4012C870E94910A2C012C8553
:100E4000022F0068710103FD1CC006C0B60180E2DC
:100E500090E00E94A70A1150812F90E04816590691
:100E6000A8F30FC0F40107FD859107FF81914F01A1
:100E7000B60190E00E94A70A11111150F1E04F1A3B
:100E800051084114510471F7E8C0843611F08936D5
:100E900051F5F70127FF07C060817181828193813D
:100EA00044E050E008C060817181882777FD80951B
:100EB000982F42E050E0E40EF51E3FE6432E42221A
:100EC00097FF09C090958095709561957F4F8F4FE2
:100ED0009F4F50E8452A2AE030E0A3010E94DD0A36
:100EE000882E861840C0022F853721F40F7E2AE015
:100EF00030E01FC0097F8F36A1F020F4883509F05B
:100F0000AFC00BC0803721F0883709F0A9C001C0FD
:100F1000006104FF09C0046007C024FF08C0066028
:100F200006C028E030E005C020E130E002C020E14A
:100F300032E0F70107FF07C06081718182819381F0
:100F400044E050E006C06081718180E090E042E0C2
:100F500050E0E40EF51EA3010E94DD0A882E8618DB
:100F60008FE7482E402246FE0BC0042D0E7F8514CD
:100F700050F444FE0AC042FC08C0042D0E7E05C099
:100F8000982C042D03C0982C01C0952C04FF0DC093
:100F9000FE01E80DF11D8081803311F4097E09C046
:100FA00002FF06C09394939404C0802F867809F0C2
:100FB000939403FD12C000FF0DC0582C911650F4FD
:100FC000510E5918912E06C0B60180E290E00E94A1
:100FD000A70A93949116C0F304C0911610F419193E
:100FE00001C010E004FF10C0B60180E390E00E9451
:100FF000A70A02FF1EC001FF03C088E590E002C0FF
:1010000088E790E0B6010CC0802F867891F001FD52
:1010100002C080E201C08BE207FD8DE2B60190E0E4
:101020000E94A70A06C0B60180E390E00E94A70ACA
:101030005A948514C0F38A94F301E80DF11DB601AA
:10104000808190E00E94A70A8110F5CF06C0B6010A
:1010500080E290E00E94A70A11501111F8CF48CE0B
:10106000F6012681378102C02FEF3FEFC9012C9690
:10107000E2E10C94570B6F927F929F92AF92BF92D6
:10108000CF92DF92EF92FF920F931F93CF93DF9354
:10109000CDB7DEB729970FB6F894DEBF0FBECDBF30
:1010A0006A01F22E102F0C3318F4B02EB39402C044
:1010B000ACE3BA2E0B2D27E0AE014F5F5F4F0E94CD
:1010C000B909A9812A2F2970213031F0E1FC06C02D
:1010D000E0FE06C020E205C02DE203C02BE201C005
:1010E00020E0A3FF3DC0222311F084E001C083E093
:1010F0008F1510F4F81A01C0F12CE4FC0BC08F2DF1
:10110000F60190E202C0919381508111FCCFCF0C87
:10111000D11CF12C222319F0D6012D936D01E2FE92
:101120000AC08EE4F601808391E491838283F3E028
:10113000CF0ED11C0CC08EE6D6018C9391E6119691
:101140009C93119712968C93B3E0CB0ED11C8F2DEC
:10115000F60190E202C0919381508111FCCF40C012
:10116000A2FF45C0222311F084E001C083E08F1567
:1011700010F4F81A01C0F12CE4FC0BC08F2DF6011D
:1011800090E202C0919381508111FCCFCF0CD11C11
:10119000F12C222319F0F60121936F01E2FE0EC01B
:1011A00089E4D6018C938EE411968C93119786E492
:1011B00012968C93B3E0CB0ED11C0AC089E6F601DF
:1011C00080838EE6818386E68283F3E0CF0ED11C96
:1011D0008F2DF60190E202C0919381508111FCCFD6
:1011E000F601EF0DF11D10822EEF3FEFADC0B1E023
:1011F000211101C0B0E06B2F70E01816190624F41D
:10120000AC014F5F5F4F02C041E050E0640F751FBB
:10121000112329F0412F50E04F5F5F4F02C040E0A3
:1012200050E0460F571F6F2D70E0461757071CF40C
:101230003F2D341B01C030E05E2D5071E4FC0DC029
:10124000E3FC0BC0432FF60160E202C06193415002
:101250004111FCCFC30ED11C30E0BB2319F0F601C5
:1012600021936F0151110BC0232FF60140E302C0FF
:10127000419321502111FCCFC30ED11C30E0B80E98
:10128000AA80F0E19F2E9A22A4FF04C0F1E3AF12DE
:1012900001C0BA941B142CF42B2D293018F028E02F
:1012A00001C021E0AC0197FF02C040E050E060E0E7
:1012B00070E0EEE2BE2E3C01621A71087C01E41A75
:1012C000F50AFE013196EE0DFF1D012F10E011957C
:1012D000019511094F3F2FEF520719F4D601BD9226
:1012E0006D018417950754F0641675063CF47F0170
:1012F000E60EF71ED70111962C9101C020E3415054
:1013000051096F5F7F4F4017510724F0D6012D938D
:101310006D01E0CF4817590741F4B5E3BA1520F045
:10132000AB1203C0911001C021E3F6012193832F7A
:10133000DF0190E202C09D9381508111FCCFE30F49
:10134000F11D108220E030E0C90129960FB6F89413
:10135000DEBF0FBECDBFDF91CF911F910F91FF90E8
:10136000EF90DF90CF90BF90AF909F907F906F9065
:101370000895283008F027E03327DA01990F311D4E
:1013800087FD916000966105710539F432602E5F2A
:101390003D9330E32A95E1F708959F3F30F0803880
:1013A0007105610509F03C5F3C5F3D93913008F0A9
:1013B0008068911DDF93CF931F930F93FF92EF925D
:1013C000192F987F9695E92F96959695E90FFF2707
:1013D000EE53FF4F99273327EE24FF24A701E7019F
:1013E00005900894079428F4360FE71EF81E491F4D
:1013F000511D660F771F881F991F0694A1F705904E
:10140000079428F4E70EF81E491F561FC11D770FD9
:10141000881F991F661F0694A1F70590079428F46A
:10142000F80E491F561FC71FD11D880F991F661F31
:10143000771F0694A1F70590079420F4490F561FD3
:10144000C71FD81F990F661F771F881F0694A9F71B
:1014500084911095177041F0D695C795579547958B
:10146000F794E7941A95C1F7E8E6F0E068941590D0
:10147000159135916591959105907FE27395E118ED
:10148000F10A430B560BC90BD009C0F7E10CF11E52
:10149000431F561FC91FD01D7EF4703311F48A9567
:1014A000E6CFE894015030F0080F0AF40027021745
:1014B00008F4202F2395022F7A3328F079E37D93C7
:1014C0002A95E9F710C07D932A9589F60694979599
:1014D0006795379517951794E118F10A430B560B4A
:1014E000C90BD00998F023957E9173957A3308F053
:1014F00070E37C932013B8F77E9170617D9330F098
:10150000839571E37D9370E32A95E1F71124EF90C1
:10151000FF900F911F91CF91DF91992787FD9095B3
:101520000895FC010590615070400110D8F7809536
:1015300090958E0F9F1F0895FC016150704001909F
:101540000110D8F7809590958E0F9F1F0895CF9228
:10155000DF92EF92FF926C017B01DB0113968C917D
:1015600081FD04C0CC24CA94DC2C21C082FF10C0B1
:10157000FB012681378184819581281739078CF4F6
:101580000190F081E02DC192DB01ED93FC9309C045
:10159000DB011896ED91FC9119978C2D0995892BFB
:1015A00009F7F70186819781019697838683C601A3
:1015B000FF90EF90DF90CF900895FA01AA2728308E
:1015C00051F1203181F1E8946F936E7F6E5F7F4F10
:1015D0008F4F9F4FAF4FB1E03ED0B4E03CD0670F8C
:1015E000781F891F9A1FA11D680F791F8A1F911DDF
:1015F000A11D6A0F711D811D911DA11D20D009F42F
:1016000068943F912AE0269F11243019305D319370
:10161000DEF6CF010895462F4770405D4193B3E059
:101620000FD0C9F7F6CF462F4F70405D4A3318F000
:10163000495D31FD4052419302D0A9F7EACFB4E0B1
:10164000A6959795879577956795BA95C9F7009769
:101650006105710508959B01AC010A2E069457950A
:10166000479537952795BA95C9F7620F731F841F61
:10167000951FA01D08952F923F924F925F926F92F7
:101680007F928F929F92AF92BF92CF92DF92EF9212
:10169000FF920F931F93CF93DF93CDB7DEB7CA1B93
:1016A000DB0B0FB6F894DEBF0FBECDBF09942A88BE
:1016B000398848885F846E847D848C849B84AA8466
:1016C000B984C884DF80EE80FD800C811B81AA81F3
:1016D000B981CE0FD11D0FB6F894DEBF0FBECDBFBE
:0816E000ED010895F894FFCF1D
:1016E80052504D203D2025732020202025690A4492
:1016F800757479203D2025732563202020256920D5
:021708000000DF
:00000001FF
