:100000000C9434000C9451000C9451000C94E400B6
:100010000C9451000C9451000C9451000C9451001C
:100020000C9451000C9451000C9451000C9451000C
:100030000C9451000C9451000C94B7000C94510096
:100040000C9451000C9451000C9451000C945100EC
:100050000C9451000C9451000C9451000C945100DC
:100060000C9451000C94510011241FBECFEFD8E026
:10007000DEBFCDBF11E0A0E0B1E0ECE2FBE002C0EA
:1000800005900D92AA30B107D9F711E0AAE0B1E0CE
:1000900001C01D92A831B107E1F70E946C000C94D9
:1000A00094050C940000EBE6F0E08081836180838E
:1000B000E8E6F0E080818160808384B5826084BD61
:1000C0008BE987BD85B5856085BDEEE6F0E0808172
:1000D0008260808378940895CF93DF93CDB7DEB7A5
:1000E00064970FB6F894DEBF0FBECDBF0E945300D9
:1000F00014B815B883E60E94890180E0C82E81E01B
:10010000D82E14E1EE24E394F12CEC0EFD1E409168
:1001100012015091130120910A0130910B0180913D
:100120000C0190910D015F934F933F932F939F93F9
:100130008F93DF92CF921F921F93FF92EF920E94B4
:100140009F0260E070E0C7010E94C7012FEF80E7C7
:1001500092E0215080409040E1F700C000000E94F2
:100160007D010FB6F894DEBF0FBECDBFD0CF1F927A
:100170000F920FB60F9211248F939F9380911001CD
:1001800090911101C29749F410920F0110920E0143
:10019000109211011092100110C080910E019091E7
:1001A0000F01181619064CF480911001909111015D
:1001B000019690931101809310019F918F910F9060
:1001C0000FBE0F901F9018951F920F920FB60F92AF
:1001D00011242F938F939F9323B12093140120FF19
:1001E0000DC08091150180FD09C080910C01909196
:1001F0000D01019690930D0180930C0121FF0DC01C
:100200008091150181FD09C080910A0190910B0137
:10021000019690930B0180930A012093150124FD10
:1002200018C080910E0190910F01892B91F480915B
:100230001201909113010196909313018093120182
:1002400080910E0190910F01019690930F01809380
:100250000E019F918F912F910F900FBE0F901F90C5
:10026000189520911601309117012130310521F4A4
:1002700095B1982B95B9089598B1982B98B9089590
:10028000209116013091170180952130310521F41C
:1002900095B1982395B9089598B1982398B9089580
:1002A00088E00E94310184E090E00197F1F788E056
:1002B0000E94400188EC90E00197F1F70895CF93F8
:1002C000C82F80E20E944001CBB9CF910C9450011D
:1002D000CF93C82F80E20E94400180E10E9440013C
:1002E0008C2F807F8BB90E94500120E1C29FC001FA
:1002F00011248BB9CF910C9450011BB80E9450016E
:1003000080E18BB90E94500180E99AE10197F1F7F1
:10031000089590EF9AB9823649F481E090E0909385
:1003200017018093160188E384B906C01092170163
:100330001092160188E387B92FE782E392E02150FB
:1003400080409040E1F700C0000080E30E945F0120
:1003500080E190E40197F1F780E30E945F0180E97A
:1003600091E00197F1F780E30E945F0180E20E9433
:100370005F0182E00E94680188E20E9468018CE0CF
:100380000E9468010E947D0186E00C9468018F92B2
:100390009F92AF92BF92CF92DF92EF92FF920F9314
:1003A0001F93CF93DF937C014B016A01FC0120E096
:1003B00030E0CFEF1FEF45C08114910449F4C11420
:1003C000D10409F447C041E0C416D10409F441C086
:1003D0002F30310519F4803291F53CC02F313105B1
:1003E00019F4803261F538C02031310599F480323A
:1003F00031F181E08816910411F580E190E0D70198
:10040000A80FB91F4C91403211F4182F18C0019752
:10041000B0F715C02032310591F4803281F081E0CF
:10042000C816D10461F480E290E0D701A80FB91F8B
:100430004C91403211F4C82F02C00197B0F72F5FE2
:100440003F4F8191882349F02436310509F0B4CF1C
:1004500004C0C0E210E101C0C0E2D0E088ECA82EE8
:10046000B12C58C08A3049F480EC0E946801C50163
:100470000197F1F7DF5F1FEF30C0D11731F0812F07
:1004800090E0809628173907D9F480EC0E94680123
:10049000C5010197F1F781E08816910409F41CC0A9
:1004A00091E0C916D104C9F481149104B1F42D2F3F
:1004B00030E0812F90E080962817390771F40CC046
:1004C000DC130BC080E80E946801C5010197F1F7B9
:1004D00021E0C216D10409F4DF5FF701ED0FF11D31
:1004E000008180E20E94310180E10E944001802F62
:1004F000807F8BB90E94500140E1049FC00111240C
:100500008BB90E94500180E20E944001C501019711
:10051000F1F7DF5F2D2F30E0F701E20FF31F80814D
:100520008111A0CFDF91CF911F910F91FF90EF909C
:10053000DF90CF90BF90AF909F908F900895EF92F3
:10054000FF92CF93DF93CDB7DEB72E970FB6F89417
:10055000DEBF0FBECDBFED88FE888F89988D26E067
:100560002C83FA82E98297FF02C080E090E801972D
:100570009E838D83CE014B96AC01698D7A8DCE0121
:1005800001960E94DC024D815E8157FD0AC02F81D9
:100590003885421753070CF49A01F701E20FF31F55
:1005A00010822E960FB6F894DEBF0FBECDBFDF913E
:1005B000CF91FF90EF900895ACE0B0E0E2EEF2E072
:1005C0000C945D056C015B017A01FC0117821682B7
:1005D000838181FFC1C166246394712C6C0E7D1EE2
:1005E000F6019381F50193FD859193FF81915F0160
:1005F000882309F4ADC1853239F493FD859193FFC9
:1006000081915F01853229F4B60190E00E94C9040E
:10061000E7CF512C10E020E02032A8F48B3261F0BB
:1006200028F4803251F0833271F40BC08D3239F0EE
:10063000803349F4216028C02260246025C02860EE
:1006400023C0206121C027FD27C0382F30533A3006
:1006500078F426FF06C0FAE05F9E300D1124532E79
:1006600013C04AE0149F300D1124132F20620CC0D8
:100670008E3221F426FD6CC1206406C08C3611F444
:10068000206802C0883641F4F50193FD859193FFFF
:1006900081915F018111C0CF982F9554933018F04C
:1006A0009052933030F4F4E0EF0EF11C4FE34983A5
:1006B0000EC0833631F0833779F0833509F05DC0A1
:1006C00023C0F7018081898342E0E40EF11C4424B9
:1006D0004394512C430115C0170152E0250E311CE3
:1006E000F7018080918026FF03C0652D70E002C075
:1006F0006FEF7FEFC4012C870E94BE042C017101B3
:100700002C85022F0F7717C01701F2E02F0E311C36
:10071000F7018080918026FF03C0652D70E002C044
:100720006FEF7FEFC4012C870E94B3042C012C854E
:10073000022F0068710103FD1CC006C0B60180E2F3
:1007400090E00E94C9041150812F90E0481659068C
:10075000A8F30FC0F40107FD859107FF81914F01B8
:10076000B60190E00E94C90411111150F1E04F1A36
:1007700051084114510471F7E8C0843611F08936EC
:1007800051F5F70127FF07C0608171818281938154
:1007900044E050E008C060817181882777FD809532
:1007A000982F42E050E0E40EF51E3FE6432E422231
:1007B00097FF09C090958095709561957F4F8F4FF9
:1007C0009F4F50E8452A2AE030E0A3010E94FF0431
:1007D000882E861840C0022F853721F40F7E2AE02C
:1007E00030E01FC0097F8F36A1F020F4883509F072
:1007F000AFC00BC0803721F0883709F0A9C001C015
:10080000006104FF09C0046007C024FF08C006603F
:1008100006C028E030E005C020E130E002C020E161
:1008200032E0F70107FF07C0608171818281938107
:1008300044E050E006C06081718180E090E042E0D9
:1008400050E0E40EF51EA3010E94FF04882E8618D6
:100850008FE7482E402246FE0BC0042D0E7F8514E4
:1008600050F444FE0AC042FC08C0042D0E7E05C0B0
:10087000982C042D03C0982C01C0952C04FF0DC0AA
:10088000FE01E80DF11D8081803311F4097E09C05D
:1008900002FF06C09394939404C0802F867809F0D9
:1008A000939403FD12C000FF0DC0582C911650F414
:1008B000510E5918912E06C0B60180E290E00E94B8
:1008C000C90493949116C0F304C0911610F4191939
:1008D00001C010E004FF10C0B60180E390E00E9468
:1008E000C90402FF1EC001FF03C088E590E002C0FA
:1008F00088E790E0B6010CC0802F867891F001FD6A
:1009000002C080E201C08BE207FD8DE2B60190E0FB
:100910000E94C90406C0B60180E390E00E94C904A9
:100920005A948514C0F38A94F301E80DF11DB601C1
:10093000808190E00E94C9048110F5CF06C0B60105
:1009400080E290E00E94C90411501111F8CF48CE06
:10095000F6012681378102C02FEF3FEFC9012C96A7
:10096000E2E10C947905FC010590615070400110A2
:10097000D8F7809590958E0F9F1F0895FC016150C8
:10098000704001900110D8F7809590958E0F9F1FB1
:100990000895CF92DF92EF92FF926C017B01DB0111
:1009A00013968C9181FD04C0CC24CA94DC2C21C008
:1009B00082FF10C0FB012681378184819581281731
:1009C00039078CF40190F081E02DC192DB01ED93A9
:1009D000FC9309C0DB011896ED91FC9119978C2DC1
:1009E0000995892B09F7F7018681978101969783ED
:1009F0008683C601FF90EF90DF90CF900895FA01B3
:100A0000AA27283051F1203181F1E8946F936E7F4D
:100A10006E5F7F4F8F4F9F4FAF4FB1E03ED0B4E03E
:100A20003CD0670F781F891F9A1FA11D680F791F7F
:100A30008A1F911DA11D6A0F711D811D911DA11D90
:100A400020D009F468943F912AE0269F11243019A0
:100A5000305D3193DEF6CF010895462F4770405D3B
:100A60004193B3E00FD0C9F7F6CF462F4F70405DEA
:100A70004A3318F0495D31FD4052419302D0A9F745
:100A8000EACFB4E0A6959795879577956795BA953F
:100A9000C9F700976105710508959B01AC010A2E05
:100AA00006945795479537952795BA95C9F7620FDC
:100AB000731F841F951FA01D08952F923F924F9280
:100AC0005F926F927F928F929F92AF92BF92CF92DE
:100AD000DF92EF92FF920F931F93CF93DF93CDB7E7
:100AE000DEB7CA1BDB0B0FB6F894DEBF0FBECDBF5F
:100AF00009942A88398848885F846E847D848C8430
:100B00009B84AA84B984C884DF80EE80FD800C8138
:100B10001B81AA81B981CE0FD11D0FB6F894DEBF1B
:0C0B20000FBECDBFED010895F894FFCF8B
:0A0B2C002569202025690A256900CB
:00000001FF
